{
  "contractName": "SmartParking",
  "abi": [
    {
      "constant": true,
      "inputs": [
        {
          "name": "",
          "type": "uint256"
        }
      ],
      "name": "spots",
      "outputs": [
        {
          "name": "id",
          "type": "uint256"
        },
        {
          "name": "content",
          "type": "string"
        },
        {
          "name": "completed",
          "type": "bool"
        }
      ],
      "payable": false,
      "stateMutability": "view",
      "type": "function",
      "signature": "0x145a8bdf"
    },
    {
      "constant": true,
      "inputs": [],
      "name": "spotCount",
      "outputs": [
        {
          "name": "",
          "type": "uint256"
        }
      ],
      "payable": false,
      "stateMutability": "view",
      "type": "function",
      "signature": "0xce945b6c"
    },
    {
      "inputs": [],
      "payable": false,
      "stateMutability": "nonpayable",
      "type": "constructor",
      "signature": "constructor"
    },
    {
      "anonymous": false,
      "inputs": [
        {
          "indexed": false,
          "name": "id",
          "type": "uint256"
        },
        {
          "indexed": false,
          "name": "content",
          "type": "string"
        },
        {
          "indexed": false,
          "name": "completed",
          "type": "bool"
        }
      ],
      "name": "SpotCreated",
      "type": "event",
      "signature": "0xf1bfba65248afd71c7cc462f14b2511c71cecf5532dd8fe494490e450456e47a"
    },
    {
      "anonymous": false,
      "inputs": [
        {
          "indexed": false,
          "name": "id",
          "type": "uint256"
        },
        {
          "indexed": false,
          "name": "completed",
          "type": "bool"
        }
      ],
      "name": "SpotCompleted",
      "type": "event",
      "signature": "0x25b4275335fd8d05aeb8c079d8a7d619732d80046551c08cdd1b16e9f82f84a9"
    },
    {
      "constant": false,
      "inputs": [
        {
          "name": "_content",
          "type": "string"
        }
      ],
      "name": "createSpot",
      "outputs": [],
      "payable": false,
      "stateMutability": "nonpayable",
      "type": "function",
      "signature": "0xb57216e9"
    },
    {
      "constant": false,
      "inputs": [
        {
          "name": "_id",
          "type": "uint256"
        }
      ],
      "name": "toggleCompleted",
      "outputs": [],
      "payable": false,
      "stateMutability": "nonpayable",
      "type": "function",
      "signature": "0x455f5024"
    }
  ],
  "bytecode": "0x60806040526000805534801561001457600080fd5b5060408051808201909152601681527f77656c636f6d6520746f206f7572207765627369746500000000000000000000602082015261005b90640100000000610060810204565b61021f565b60008054600190810180835560408051606081018252828152602080820187815282840187905293865284815291909420845181559151805192936100ad93908501929190910190610184565b5060408201518160020160006101000a81548160ff0219169083151502179055509050507ff1bfba65248afd71c7cc462f14b2511c71cecf5532dd8fe494490e450456e47a600054826000604051808481526020018060200183151515158152602001828103825284818151815260200191508051906020019080838360005b8381101561014557818101518382015260200161012d565b50505050905090810190601f1680156101725780820380516001836020036101000a031916815260200191505b5094505050505060405180910390a150565b828054600181600116156101000203166002900490600052602060002090601f016020900481019282601f106101c557805160ff19168380011785556101f2565b828001600101855582156101f2579182015b828111156101f25782518255916020019190600101906101d7565b506101fe929150610202565b5090565b61021c91905b808211156101fe5760008155600101610208565b90565b6106448061022e6000396000f3fe6080604052600436106100615763ffffffff7c0100000000000000000000000000000000000000000000000000000000600035041663145a8bdf8114610066578063455f50241461011a578063b57216e914610146578063ce945b6c146101f9575b600080fd5b34801561007257600080fd5b506100906004803603602081101561008957600080fd5b5035610220565b604051808481526020018060200183151515158152602001828103825284818151815260200191508051906020019080838360005b838110156100dd5781810151838201526020016100c5565b50505050905090810190601f16801561010a5780820380516001836020036101000a031916815260200191505b5094505050505060405180910390f35b34801561012657600080fd5b506101446004803603602081101561013d57600080fd5b50356102cf565b005b34801561015257600080fd5b506101446004803603602081101561016957600080fd5b81019060208101813564010000000081111561018457600080fd5b82018360208201111561019657600080fd5b803590602001918460018302840111640100000000831117156101b857600080fd5b91908080601f01602080910402602001604051908101604052809392919081815260200183838082843760009201919091525092955061042f945050505050565b34801561020557600080fd5b5061020e610553565b60408051918252519081900360200190f35b600160208181526000928352604092839020805481840180548651600296821615610100026000190190911695909504601f810185900485028601850190965285855290949193929091908301828280156102bc5780601f10610291576101008083540402835291602001916102bc565b820191906000526020600020905b81548152906001019060200180831161029f57829003601f168201915b5050506002909301549192505060ff1683565b6102d7610559565b60008281526001602081815260409283902083516060810185528154815281840180548651600296821615610100026000190190911695909504601f810185900485028601850190965285855290949193858401939092908301828280156103805780601f1061035557610100808354040283529160200191610380565b820191906000526020600020905b81548152906001019060200180831161036357829003601f168201915b50505091835250506002919091015460ff161515602091820152604080830180511590526000858152600180845291902083518155838301518051949550859491936103d19385019291019061057d565b50604091820151600291909101805460ff1916911515919091179055818101518151848152901515602082015281517f25b4275335fd8d05aeb8c079d8a7d619732d80046551c08cdd1b16e9f82f84a9929181900390910190a15050565b600080546001908101808355604080516060810182528281526020808201878152828401879052938652848152919094208451815591518051929361047c9390850192919091019061057d565b5060408201518160020160006101000a81548160ff0219169083151502179055509050507ff1bfba65248afd71c7cc462f14b2511c71cecf5532dd8fe494490e450456e47a600054826000604051808481526020018060200183151515158152602001828103825284818151815260200191508051906020019080838360005b838110156105145781810151838201526020016104fc565b50505050905090810190601f1680156105415780820380516001836020036101000a031916815260200191505b5094505050505060405180910390a150565b60005481565b60606040519081016040528060008152602001606081526020016000151581525090565b828054600181600116156101000203166002900490600052602060002090601f016020900481019282601f106105be57805160ff19168380011785556105eb565b828001600101855582156105eb579182015b828111156105eb5782518255916020019190600101906105d0565b506105f79291506105fb565b5090565b61061591905b808211156105f75760008155600101610601565b9056fea165627a7a7230582034d65adc2d37034b4ea3a70f02e61ad2ce3d0d45f8439abe1ad5a69c705e53be0029",
  "source": "pragma solidity ^0.5.0;\n\ncontract SmartParking {\n    uint public spotCount = 0;\n\n    struct Spot {\n        uint id;\n        string content;\n        bool completed;\n    }\n\n    mapping(uint => Spot) public spots;\nevent SpotCreated(\n    uint id,\n    string content,\n    bool completed\n  );\n\nevent SpotCompleted(\n    uint id,\n    bool completed\n  );\nconstructor() public {\n        createSpot(\"welcome to our website\");   \n    }\n\n  \n    function createSpot(string memory _content) public {\n        spotCount++;\n        spots[spotCount] = Spot(spotCount, _content, false);\n        emit SpotCreated(spotCount, _content, false);\n    }\n    \n\n  function toggleCompleted(uint _id) public {\n    Spot memory _task = spots[_id];\n    _task.completed = !_task.completed;\n    spots[_id] = _task;\n    emit SpotCompleted(_id, _task.completed);\n  }\n    \n \n\n\n}\n\n",
  "sourcePath": "C:/Users/Utilisateur/Desktop/Blockchain-web-SmartContract-master/contracts/SmartParking.sol",
  "compiler": {
    "name": "solc",
    "version": "0.5.0+commit.1d4f565a.Emscripten.clang"
  },
  "schemaVersion": "3.0.1",
  "updatedAt": "2021-12-06T01:47:15.227Z",
  "devdoc": {
    "methods": {}
  },
  "userdoc": {
    "methods": {}
  }
}